10664202900001306877842250056 AGITO BOUTIQUE LTDA - EPP          TIMOTEO                       MG00000000002019100120191031331
11RUA QUINZE DE NOVEMBRO            00095LOJA 01               CENTRO         35180010MARTHA GAUDERETO OLIVEIRA   003138481813
5000006442653617ISENTO        20191001MG551  0019371202P000000000897000000000000000000000000000000000000000000000000089700000N
5000001751528618ISENTO        20191002MG551  0019381202P000000001380000000000000000000000000000000000000000000000000138000000N
5000005523790699ISENTO        20191002MG551  0019391202P000000000780000000000000000000000000000000000000000000000000078000000N
50006755340002072989351110140 20191002MG551  0019405202P000000017740000000000000000000000000000000000000000000000001774000000N
50138002010001150017882720020 20191002MG551  0019415202P000000006796000000000000000000000000000000000000000000000000679600000N
50006755340002072989351110140 20191002MG551  0064591102T000000060620000000000000000000000000000000000000000000000006062000000N
50138002010001150017882720020 20191002MG551  0069641102T000000012781000000000000000000000000000000000000000000000001278100000N
5000070336199600ISENTO        20191003MG551  0019421202P000000002220000000000000000000000000000000000000000000000000222000000N
5000051415674604ISENTO        20191003MG551  0019431202P000000004287000000000000000000000000000000000000000000000000428700000N
5000098266985634ISENTO        20191003MG551  0019441202P000000001170000000000000000000000000000000000000000000000000117000000N
500936345000011378453575      20191003RJ554  2268362102T000000042883900000000000000000000000000000000000000000000004288390000N
501209344500022378947136      20191003RJ551  4005112102T000000024453000000000000000000000000000000000000000000000002445300000N
5007308705002830ISENTO        20191003RJ554  7217862102T000000051470000000000000000000000000000000000000000000000005147000000N
5000000000000000ISENTO        20191003RJ5510 7656592102T000000014876700000000000000000000000000000000000000000000001487670000N
5000000000000000ISENTO        20191003RJ5510 7672822102T000000008449500000000000000000000000000000000000000000000000844950000N
5000002590013680ISENTO        20191004MG551  0019451202P000000001950000000000000000000000000000000000000000000000000195000000N
5000043916163604ISENTO        20191004MG551  0019461202P000000001437000000000000000000000000000000000000000000000000143700000N
5018650225000400257121137     20191004SC551  0019476202P000000002679500000000000000000000003216000000000000000000000267951200N
5007308705002830ISENTO        20191004RJ554  7241582102T000000022900000000000000000000000000000000000000000000000002290000000N
5000000000000000ISENTO        20191004RJ5510 7686462102T000000005486400000000000000000000000000000000000000000000000548640000N
5000051416220615ISENTO        20191005MG551  0019481202P000000001290000000000000000000000000000000000000000000000000129000000N
5000045521247653ISENTO        20191007MG551  0019491202P000000001647000000000000000000000000000000000000000000000000164700000N
5000013148826604ISENTO        20191007MG551  0019501202P000000005547000000000000000000000000000000000000000000000000554700000N
5000046858512691ISENTO        20191007MG551  0019511202P000000001170000000000000000000000000000000000000000000000000117000000N
50794520250001867010062246    20191007PR550  0481022102T000000123360000000000000000000000000000000000000000000000012336000000N
50794520250001867010062246    20191007PR551  0481021102T000000000000000000012336000000000148032000000000000000000000000001200N
50712366240006657028508060360 20191008MG551  0039741102T000000041120000000000000000000000000000000000000000000000004112000000N
50031956280001880620245230083 20191008MG551  0331101556T000000000967000000000000000000000000000000000000000000000000096700000N
5003661456000190ISENTO        20191008MG551  0609451556T000000001250000000000000000000000000000000000000000000000000125000000N
5009054385004808ISENTO        20191008SP551  8030312102T000000012843800000000000000000000000000000000000000000000001284380000N
5009054385004808ISENTO        20191008SP551  8037772102T000000012045800000000000000000000000000000000000000000000001204580000N
5000010037432699ISENTO        20191009MG551  0019521202P000000000660000000000000000000000000000000000000000000000000066000000N
5000071150552620ISENTO        20191009MG551  0019531202P000000001170000000000000000000000000000000000000000000000000117000000N
5000003013702656ISENTO        20191009MG551  0019541202P000000001680000000000000000000000000000000000000000000000000168000000N
5000045832315634ISENTO        20191009MG551  0019551202P000000000897000000000000000000000000000000000000000000000000089700000N
5000005184748601ISENTO        20191009MG551  0019561202P000000007440000000000000000000000000000000000000000000000000744000000N
5000003449143646ISENTO        20191009MG551  0019571202P000000002997000000000000000000000000000000000000000000000000299700000N
5000007666923619ISENTO        20191009MG551  0019581202P000000000420000000000000000000000000000000000000000000000000042000000N
5000090082079668ISENTO        20191011MG551  0019591202P000000003189000000000000000000000000000000000000000000000000318900000N
5000049356470600ISENTO        20191011MG551  0019601202P000000000870000000000000000000000000000000000000000000000000087000000N
5000001325764655ISENTO        20191011MG551  0019611202P000000001437000000000000000000000000000000000000000000000000143700000N
5000000000000000ISENTO        20191011RJ5510 7740412102T000000013085700000000000000000000000000000000000000000000001308570000N
5024020111000128140434299110  20191014SP552  0032132102T000000029055700000000000000000000000000000000000000000000002905570000N
5066794033000169113217876112  20191014SP551  0214602102T000000005465500000000000000000000000000000000000000000000000546550000N
5004049767000166115982756112  20191014SP551  0232032102T000000024100200000000000000000000000000000000000000000000002410020000N
5048950372000105109914576117  20191014SP551  0364572102T000000061633000000000000000000000000000000000000000000000006163300000N
5051719961000191113770947118  20191014SP551  0596912102T000000052828700000000000000000000000000000000000000000000005282870000N
5000000000000000ISENTO        20191014RJ5510 7751432102T000000001354400000000000000000000000000000000000000000000000135440000N
5027826949000100118104402115  20191015SP551  0002122102T000000011646000000000000000000000000000000000000000000000001164600000N
5000042754291687ISENTO        20191015MG551  0019621202P000000003780000000000000000000000000000000000000000000000000378000000N
5000004598276690ISENTO        20191015MG551  0019631202P000000001797000000000000000000000000000000000000000000000000179700000N
5066914326000132113179886115  20191015SP551  0027312102T000000015696000000000000000000000000000000000000000000000001569600000N
5043470566002567283517239     20191015MS551  1798222102T000000039249300000000000000000000000000000000000000000000003924930000N
500936345000011378453575      20191015RJ554  2277592102T000000030165300000000000000000000000000000000000000000000003016530000N
5000564681000200126338729113  20191016SP551  0001012102T000000022319300000000000000000000000000000000000000000000002231930000N
5027745423000197ISENTO        20191016SP551  0015862102T000000009199800000000000000000000000000000000000000000000000919980000N
5000003593417642ISENTO        20191016MG551  0019641202P000000001770000000000000000000000000000000000000000000000000177000000N
5000003013702656ISENTO        20191016MG551  0019651202P000000001680000000000000000000000000000000000000000000000000168000000N
5024330475000104140597300112  20191016SP551  0076082102T000000017448300000000000000000000000000000000000000000000001744830000N
5007470309000194ISENTO        20191016SP551  0085052102T000000018439200000000000000000000000000000000000000000000001843920000N
5071634646000179113638125111  20191016SP551  0105952102T000000006480000000000000000000000000000000000000000000000000648000000N
5020641845000173143914618115  20191016SP552  0110462102T000000018333000000000000000000000000000000000000000000000001833300000N
5007973513000128149261787113  20191016SP550  0161842102T000000010307400000000000000000000000000000000000000000000001030740000N
5062534813000119ISENTO        20191016SP551  0297142102T000000038726300000000000000000000000000000000000000000000003872630000N
5000000000000000ISENTO        20191016RJ5510 7762892102T000000014295700000000000000000000000000000000000000000000001429570000N
5000046611959653ISENTO        20191017MG551  0019661202P000000017712400000000000000000000000000000000000000000000001771240000N
501209344500022378947136      20191017RJ551  4017032102T000000037911600000000000000000000000000000000000000000000003791160000N
5007308705002830ISENTO        20191017RJ554  7319562102T000000035790000000000000000000000000000000000000000000000003579000000N
5000043464084604ISENTO        20191018MG551  0019671202P000000000780000000000000000000000000000000000000000000000000078000000N
5000052540855687ISENTO        20191018MG551  0019681202P000000000750000000000000000000000000000000000000000000000000075000000N
5000054018838620ISENTO        20191018MG551  0019691202P000000000360000000000000000000000000000000000000000000000000036000000N
5001285847000122114678219115  20191018SP551  0101102102T000000014729400000000000000000000000000000000000000000000001472940000N
5018650225000400257121137     20191018SC551  1082752102T000000023545000000002354500000000028255000000000000000000000000001200N
5018650225000400257121137     20191018SC551  1082752407T000000001499900000000000000000000000000000000000000000000000149991200N
500936345000011378453575      20191018RJ554  2286032102T000000039428800000000000000000000000000000000000000000000003942880000N
5000000000000000ISENTO        20191018RJ5510 7797912102T000000003840800000000000000000000000000000000000000000000000384080000N
5009054385004808ISENTO        20191018SP551  8051642102T000000018134700000000000000000000000000000000000000000000001813470000N
5009054385004808ISENTO        20191018SP551  8053512102T000000015044500000000000000000000000000000000000000000000001504450000N
5000083749470634ISENTO        20191019MG551  0019701202P000000002967000000000000000000000000000000000000000000000000296700000N
5000083749470634ISENTO        20191019MG551  0019711202P000000002244000000000000000000000000000000000000000000000000224400000N
5000046612831634ISENTO        20191021MG551  0019721202P000000002997000000000000000000000000000000000000000000000000299700000N
5000034888977615ISENTO        20191022MG551  0019731202P000000004797000000000000000000000000000000000000000000000000479700000N
5000005197580640ISENTO        20191022MG551  0019741202P000000002997000000000000000000000000000000000000000000000000299700000N
501209344500022378947136      20191022RJ551  4023162102T000000028916100000000000000000000000000000000000000000000002891610000N
50794520250001867010062246    20191023PR551  0484712102T000000051560000000000000000000000000000000000000000000000005156000000N
5000000000000000ISENTO        20191023RJ5510 7815662102T000000011140600000000000000000000000000000000000000000000001114060000N
5000000000000000ISENTO        20191023RJ5510 7823312102T000000014818200000000000000000000000000000000000000000000001481820000N
5018650225000400257121137     20191024SC551  1114352102T000000033355500000000000000000000000000000000000000000000003335550000N
5007308705002830ISENTO        20191024RJ554  7352732102T000000021460000000000000000000000000000000000000000000000002146000000N
5000007341553600ISENTO        20191025MG551  0019751202P000000001797000000000000000000000000000000000000000000000000179700000N
5003535177000180310267874110  20191025SP551  0019766202P000000000833300000000000000000000000000000000000000000000000083330000N
50015034750001634798705200063 20191025MG552  0660241102T000000003207900000000000000000000000000000000000000000000000320790000N
50015034750001634798705200063 20191025MG552  0660551102T000000003207900000000000000000000000000000000000000000000000320790000N
5000045835926634ISENTO        20191026MG551  0019771202P000000001698000000000000000000000000000000000000000000000000169800000N
501209344500022378947136      20191028RJ551  0019786202P000000002449800000000000000000000002940000000000000000000000244981200N
5000011901689603ISENTO        20191028MG551  0019791202P000000000897000000000000000000000000000000000000000000000000089700000N
5000011901689603ISENTO        20191028MG551  0019801202P000000001290000000000000000000000000000000000000000000000000129000000N
5000003423795697ISENTO        20191028MG551  0019811202P000000000420000000000000000000000000000000000000000000000000042000000N
5000030741238691ISENTO        20191029MG551  0019821202P000000003540000000000000000000000000000000000000000000000000354000000N
5000089132009615ISENTO        20191029MG551  0019831202P000000001377000000000000000000000000000000000000000000000000137700000N
5000030508487668ISENTO        20191029MG551  0019841202P000000000000000000000000000000000000000000000000000000000000000000000S
5000030508487668ISENTO        20191029MG551  0019851202P000000002997000000000000000000000000000000000000000000000000299700000N
50031956280001880620245230083 20191029MG551  0334031556T000000001176400000000000000000000000000000000000000000000000117640000N
500936345000011378453575      20191029RJ554  2291652102T000000025087600000000000000000000000000000000000000000000002508760000N
5000004522266600ISENTO        20191030MG551  0019861202P000000001197000000000000000000000000000000000000000000000000119700000N
5000008453142629ISENTO        20191030MG551  0019871202P000000002350000000000000000000000000000000000000000000000000235000000N
5000004522266600ISENTO        20191030MG551  0019881202P000000003447000000000000000000000000000000000000000000000000344700000N
5001480798000340257675124     20191030SC551  0512342102T000000023869900000000000000000000000000000000000000000000002386990000N
5043470566002567283517239     20191030MS551  1818422102T000000048720500000000000000000000000000000000000000000000004872050000N
5000040722597649ISENTO        20191031MG551  0019891202P000000001647000000000000000000000000000000000000000000000000164700000N
5000007006999618ISENTO        20191031MG551  0019901202P000000000870000000000000000000000000000000000000000000000000087000000N
5000001249528607ISENTO        20191031MG551  0019911202P000000000897000000000000000000000000000000000000000000000000089700000N
5000042312701634ISENTO        20191031MG551  0019921202P000000000897000000000000000000000000000000000000000000000000089700000N
5001434609000131081834276     20191031ES550  2171512556T000000002300000000000000000000000000000000000000000000000000230000000N
501209344500022378947136      20191031RJ551  4027962102T000000024725700000000000000000000000000000000000000000000002472570000N
5007308705002830ISENTO        20191031RJ554  7399102102T000000024330000000000000000000000000000000000000000000000002433000000N
5009054385004808ISENTO        20191031SP551  8086202102T000000011882400000000000000000000000000000000000000000000001188240000N
5407973513000128550  016184210210200130801         000000010000000000031600000000003790000000000000000000000000000000000000000
5407973513000128550  016184210210200230802         000000010000000000036800000000004420000000000000000000000000000000000000000
5407973513000128550  016184210210200330818         000000010000000000032400000000003890000000000000000000000000000000000000000
5407973513000128550  016184210210200430819         000000010000000000030400000000003650000000000000000000000000000000000000000
5407973513000128550  016184210210200530820         000000010000000000043800000000005250000000000000000000000000000000000000000
5407973513000128550  016184210210200630821         000000010000000000030400000000003650000000000000000000000000000000000000000
5407973513000128550  016184210210200730822         000000010000000000043800000000005250000000000000000000000000000000000000000
5407973513000128550  016184210210200830823         000000010000000000029800000000003580000000000000000000000000000000000000000
5407973513000128550  016184210210200930824         000000010000000000021800000000002620000000000000000000000000000000000000000
5407973513000128550  016184210210201028546         000000010000000000024800000000002980000000000000000000000000000000000000000
5407973513000128550  016184210210201130825         000000020000000000051600000000006180000000000000000000000000000000000000000
5407973513000128550  016184210210201230826         000000010000000000024800000000002980000000000000000000000000000000000000000
5407973513000128550  016184210210201330827         000000010000000000024400000000002930000000000000000000000000000000000000000
5407973513000128550  016184210210201430828         000000010000000000024400000000002930000000000000000000000000000000000000000
5407973513000128550  016184210210201530829         000000010000000000024400000000002930000000000000000000000000000000000000000
5407973513000128550  016184210210201630830         000000010000000000032800000000003940000000000000000000000000000000000000000
5407973513000128550  016184210210201730831         000000010000000000038600000000004630000000000000000000000000000000000000000
5407973513000128550  016184210210201830832         000000010000000000048600000000005820000000000000000000000000000000000000000
5407973513000128550  016184210210201930833         000000010000000000016900000000002030000000000000000000000000000000000000000
5407973513000128550  016184210210202030834         000000010000000000029800000000003580000000000000000000000000000000000000000
5407973513000128550  016184210210202130835         000000010000000000029800000000003580000000000000000000000000000000000000000
5407973513000128550  016184210210202230836         000000010000000000029800000000003580000000000000000000000000000000000000000
5407973513000128550  016184210210202330837         000000010000000000032400000000003890000000000000000000000000000000000000000
5407973513000128550  016184210210202430838         000000010000000000038800000000004650000000000000000000000000000000000000000
5407973513000128550  016184210210202530839         000000010000000000038800000000004650000000000000000000000000000000000000000
5407973513000128550  016184210210202630840         000000010000000000036800000000004420000000000000000000000000000000000000000
5407973513000128550  016184210210202730841         000000010000000000036400000000004370000000000000000000000000000000000000000
5407973513000128550  016184210210202830842         000000010000000000032400000000003890000000000000000000000000000000000000000
5407973513000128550  016184210210202930843         000000010000000000043800000000005250000000000000000000000000000000000000000
5407973513000128550  016184210210203030844         000000010000000000028400000000003410000000000000000000000000000000000000000
5407973513000128550  016184210210203130845         000000010000000000029800000000003580000000000000000000000000000000000000000
5407973513000128550  016184210210203230846         000000010000000000058000000000006950000000000000000000000000000000000000000
5407973513000128550  016184210210203330847         000000010000000000032600000000003910000000000000000000000000000000000000000
5407973513000128550  016184210210203430848         000000010000000000034800000000004180000000000000000000000000000000000000000
5407973513000128550  016184210210203530849         000000010000000000026800000000003220000000000000000000000000000000000000000
5479452025000186550  048102210210200130512         000000010000000000149000000000000000000000000000000000000000000000000000000
5479452025000186550  048102210210200230511         000000010000000000149000000000000000000000000000000000000000000000000000000
5479452025000186550  048102210210200330510         000000010000000000149000000000000000000000000000000000000000000000000000000
5479452025000186550  048102210210200430437         000000010000000000099000000000000000000000000000000000000000000000000000000
5479452025000186550  048102210210200530433         000000010000000000059000000000000000000000000000000000000000000000000000000
5479452025000186550  048102210210200630432         000000010000000000059000000000000000000000000000000000000000000000000000000
5479452025000186550  048102210210200730429         000000010000000000079000000000000000000000000000000000000000000000000000000
5479452025000186550  048102210210200830428         000000010000000000079000000000000000000000000000000000000000000000000000000
5479452025000186550  048102210210200930427         000000010000000000089000000000000000000000000000000000000000000000000000000
5479452025000186550  048102210210201030426         000000010000000000089000000000000000000000000000000000000000000000000000000
5479452025000186550  048102210210201130424         000000010000000000079000000000000000000000000000000000000000000000000000000
5479452025000186550  048102210210201230422         000000010000000000099000000000000000000000000000000000000000000000000000000
5479452025000186550  048102210210201330421         000000010000000000099000000000000000000000000000000000000000000000000000000
5479452025000186550  048102210210201430420         000000020000000000198000000000000000000000000000000000000000000000000000000
5479452025000186550  048102210210201530419         000000010000000000099000000000000000000000000000000000000000000000000000000
5479452025000186550  048102210210201630407         000000010000000000159000000000000000000000000000000000000000000000000000000
5479452025000186550  048102210210201730406         000000010000000000159000000000000000000000000000000000000000000000000000000
5479452025000186550  048102210210201830405         000000010000000000159000000000000000000000000000000000000000000000000000000
5479452025000186550  048102210210201930404         000000010000000000159000000000000000000000000000000000000000000000000000000
5479452025000186550  048102210210202030395         000000010000000000139000000000000000000000000000000000000000000000000000000
5479452025000186550  048102210210202130394         000000010000000000139000000000000000000000000000000000000000000000000000000
5479452025000186550  048102210210202230393         000000010000000000139000000000000000000000000000000000000000000000000000000
5479452025000186550  048102210210202330392         000000010000000000139000000000000000000000000000000000000000000000000000000
5479452025000186550  048102210210202430389         000000020000000000278000000000000000000000000000000000000000000000000000000
5479452025000186550  048102210210202530388         000000030000000000417000000000000000000000000000000000000000000000000000000
5479452025000186550  048102210210202630387         000000020000000000278000000000000000000000000000000000000000000000000000000
5479452025000186550  048102210210202730386         000000010000000000099000000000000000000000000000000000000000000000000000000
5479452025000186550  048102210210202830385         000000010000000000099000000000000000000000000000000000000000000000000000000
5479452025000186550  048102210210202930384         000000010000000000099000000000000000000000000000000000000000000000000000000
5479452025000186550  048102210210203030383         000000010000000000099000000000000000000000000000000000000000000000000000000
5479452025000186550  048102210210203130369         000000010000000000119000000000000000000000000000000000000000000000000000000
5479452025000186550  048102210210203230368         000000010000000000119000000000000000000000000000000000000000000000000000000
5479452025000186550  048102210210203330367         000000010000000000119000000000000000000000000000000000000000000000000000000
5479452025000186550  048102210210203430366         000000020000000000238000000000000000000000000000000000000000000000000000000
5479452025000186550  048102210210203530365         000000020000000000238000000000000000000000000000000000000000000000000000000
5479452025000186550  048102210210203630364         000000010000000000119000000000000000000000000000000000000000000000000000000
5479452025000186550  048102210210203730363         000000010000000000119000000000000000000000000000000000000000000000000000000
5479452025000186550  048102210210203830362         000000010000000000149000000000000000000000000000000000000000000000000000000
5479452025000186550  048102210210203930361         000000010000000000149000000000000000000000000000000000000000000000000000000
5479452025000186550  048102210210204030360         000000010000000000149000000000000000000000000000000000000000000000000000000
5479452025000186550  048102210210204130358         000000010000000000149000000000000000000000000000000000000000000000000000000
5479452025000186550  048102210210204230349         000000020000000000218000000000000000000000000000000000000000000000000000000
5479452025000186550  048102210210204330348         000000020000000000218000000000000000000000000000000000000000000000000000000
5479452025000186550  048102210210204430347         000000030000000000327000000000000000000000000000000000000000000000000000000
5479452025000186550  048102210210204530346         000000020000000000218000000000000000000000000000000000000000000000000000000
5479452025000186550  048102210210204630342         000000010000000000099000000000000000000000000000000000000000000000000000000
5479452025000186550  048102210210204730341         000000010000000000099000000000000000000000000000000000000000000000000000000
5479452025000186550  048102210210204830340         000000010000000000099000000000000000000000000000000000000000000000000000000
5479452025000186550  048102210210204930334         000000030000000000417000000000000000000000000000000000000000000000000000000
5479452025000186550  048102210210205030333         000000030000000000417000000000000000000000000000000000000000000000000000000
5479452025000186550  048102210210205130332         000000050000000000695000000000000000000000000000000000000000000000000000000
5479452025000186550  048102210210205230331         000000060000000000834000000000000000000000000000000000000000000000000000000
5479452025000186550  048102210210205330330         000000030000000000417000000000000000000000000000000000000000000000000000000
5479452025000186550  048102210210205430329         000000010000000000119000000000000000000000000000000000000000000000000000000
5479452025000186550  048102210210205530328         000000010000000000119000000000000000000000000000000000000000000000000000000
5479452025000186550  048102210210205630327         000000010000000000119000000000000000000000000000000000000000000000000000000
5479452025000186550  048102210210205730326         000000010000000000099000000000000000000000000000000000000000000000000000000
5479452025000186550  048102210210205830325         000000010000000000099000000000000000000000000000000000000000000000000000000
5479452025000186550  048102210210205930324         000000010000000000099000000000000000000000000000000000000000000000000000000
5479452025000186550  048102210210206030319         000000010000000000179000000000000000000000000000000000000000000000000000000
5479452025000186550  048102210210206130317         000000010000000000089000000000000000000000000000000000000000000000000000000
5479452025000186550  048102210210206230316         000000010000000000089000000000000000000000000000000000000000000000000000000
5479452025000186550  048102210210206330307         000000010000000000079000000000000000000000000000000000000000000000000000000
5479452025000186550  048102210210206430660         000000010000000000099000000000000000000000000000000000000000000000000000000
5479452025000186550  048102210210206530661         000000010000000000099000000000000000000000000000000000000000000000000000000
5479452025000186550  048102210210206630662         000000010000000000099000000000000000000000000000000000000000000000000000000
5479452025000186550  048102210210206730666         000000010000000000099000000000000000000000000000000000000000000000000000000
5479452025000186550  048102210210206830667         000000010000000000099000000000000000000000000000000000000000000000000000000
5479452025000186550  048102210210206930668         000000010000000000099000000000000000000000000000000000000000000000000000000
5479452025000186550  048102210210207030670         000000010000000000159000000000000000000000000000000000000000000000000000000
5479452025000186550  048102210210207130671         000000010000000000179000000000000000000000000000000000000000000000000000000
5479452025000186550  048102210210207230672         000000010000000000079000000000000000000000000000000000000000000000000000000
5479452025000186550  048102210210207330673         000000010000000000079000000000000000000000000000000000000000000000000000000
5479452025000186550  048102210210207430674         000000010000000000079000000000000000000000000000000000000000000000000000000
5479452025000186550  048102210210207530675         000000010000000000079000000000000000000000000000000000000000000000000000000
5479452025000186550  048102210210207630677         000000010000000000079000000000000000000000000000000000000000000000000000000
5479452025000186550  048102210210207730681         000000010000000000059000000000000000000000000000000000000000000000000000000
5401434609000131550  217151255610200111663         000000010000000000050000000000000000000000000000000000000000000000000000000
5401434609000131550  217151255610200211664         000000060000000000180000000000000000000000000000000000000000000000000000000
5400564681000200551  000101210210200130857         000000010000000000749900000000037490000000000000000000000000000000000000000
5400564681000200551  000101210210200230858         000000010000000000399900000000020000000000000000000000000000000000000000000
5400564681000200551  000101210210200330859         000000010000000000299900000000015000000000000000000000000000000000000000000
5400564681000200551  000101210210200430860         000000010000000000299900000000015000000000000000000000000000000000000000000
5400564681000200551  000101210210200530861         000000020000000000599800000000029980000000000000000000000000000000000000000
5427826949000100551  000212210210200130792         000000010000000000139000000000013900000000000000000000000000000000000000000
5427826949000100551  000212210210200230793         000000030000000000195000000000019500000000000000000000000000000000000000000
5427826949000100551  000212210210200330794         000000030000000000186000000000018600000000000000000000000000000000000000000
5427826949000100551  000212210210200430795         000000010000000000128000000000012800000000000000000000000000000000000000000
5427826949000100551  000212210210200530796         000000030000000000147000000000014700000000000000000000000000000000000000000
5427826949000100551  000212210210200630797         000000010000000000119000000000011900000000000000000000000000000000000000000
5427826949000100551  000212210210200730798         000000010000000000069000000000006900000000000000000000000000000000000000000
5427826949000100551  000212210210200830799         000000030000000000246000000000024600000000000000000000000000000000000000000
5427826949000100551  000212210210200930800         000000010000000000065000000000006500000000000000000000000000000000000000000
5427745423000197551  001586210210200130862         000000010000000000046900000000004690000000000000000000000000000000000000000
5427745423000197551  001586210210200230863         000000010000000000046900000000004690000000000000000000000000000000000000000
5427745423000197551  001586210210200330864         000000010000000000048900000000004890000000000000000000000000000000000000000
5427745423000197551  001586210210200430865         000000010000000000048900000000004890000000000000000000000000000000000000000
5427745423000197551  001586210210200530866         000000010000000000046900000000004690000000000000000000000000000000000000000
5427745423000197551  001586210210200630867         000000010000000000046900000000004690000000000000000000000000000000000000000
5427745423000197551  001586210210200730868         000000010000000000046900000000004690000000000000000000000000000000000000000
5427745423000197551  001586210210200830869         000000010000000000046900000000004690000000000000000000000000000000000000000
5427745423000197551  001586210210200930873         000000020000000000257200000000025720000000000000000000000000000000000000000
5427745423000197551  001586210210201030872         000000020000000000257200000000025720000000000000000000000000000000000000000
5427745423000197551  001586210210201130870         000000010000000000128600000000012860000000000000000000000000000000000000000
5400006442653617551  001937120210200118940         000000010000000000089700000000000000000000000000000000000000000000000000000
5400001751528618551  001938120210200119256         000000010000000000138000000000000000000000000000000000000000000000000000000
5400005523790699551  001939120210200129639         000000010000000000078000000000000000000000000000000000000000000000000000000
5400675534000207551  001940520210200127931         000000010000000000102000000000000000000000000000000000000000000000000000000
5400675534000207551  001940520210200227933         000000010000000000122000000000000000000000000000000000000000000000000000000
5400675534000207551  001940520210200327936         000000010000000000118000000000000000000000000000000000000000000000000000000
5400675534000207551  001940520210200427938         000000010000000000112000000000000000000000000000000000000000000000000000000
5400675534000207551  001940520210200527951         000000010000000000112000000000000000000000000000000000000000000000000000000
5400675534000207551  001940520210200627953         000000010000000000118000000000000000000000000000000000000000000000000000000
5400675534000207551  001940520210200727961         000000010000000000122000000000000000000000000000000000000000000000000000000
5400675534000207551  001940520210200827962         000000010000000000118000000000000000000000000000000000000000000000000000000
5400675534000207551  001940520210200927964         000000010000000000082000000000000000000000000000000000000000000000000000000
5400675534000207551  001940520210201027966         000000020000000000224000000000000000000000000000000000000000000000000000000
5400675534000207551  001940520210201127967         000000010000000000096000000000000000000000000000000000000000000000000000000
5400675534000207551  001940520210201227973         000000010000000000242000000000000000000000000000000000000000000000000000000
5400675534000207551  001940520210201327975         000000010000000000206000000000000000000000000000000000000000000000000000000
5413800201000115551  001941520210200127990         000000010000000000129900000000000000000000000000000000000000000000000000000
5413800201000115551  001941520210200227993         000000010000000000149900000000000000000000000000000000000000000000000000000
5413800201000115551  001941520210200327995         000000010000000000199900000000000000000000000000000000000000000000000000000
5413800201000115551  001941520210200428000         000000010000000000199900000000000000000000000000000000000000000000000000000
5400070336199600551  00194212021020012528          000000010000000000069000000000000000000000000000000000000000000000000000000
5400070336199600551  001942120210200225920         000000010000000000084000000000000000000000000000000000000000000000000000000
5400070336199600551  001942120210200329827         000000010000000000069000000000000000000000000000000000000000000000000000000
5400051415674604551  001943120210200130540         000000010000000000428700000000000000000000000000000000000000000000000000000
5400098266985634551  001944120210200128234         000000010000000000117000000000000000000000000000000000000000000000000000000
5400002590013680551  001945120210200128294         000000010000000000126000000000000000000000000000000000000000000000000000000
5400002590013680551  001945120210200229853         000000010000000000069000000000000000000000000000000000000000000000000000000
5400043916163604551  001946120210200128818         000000010000000000143700000000000000000000000000000000000000000000000000000
5418650225000400551  001947620290000119256         000000010000000000062990000000000000000000062990000000000000000000000001200
5418650225000400551  001947620290000218597         000000010000000000069990000000000000000000069990000000000000000000000001200
5418650225000400551  001947620290000319019         000000010000000000044990000000000000000000044990000000000000000000000001200
5418650225000400551  001947620290000419248         000000010000000000049490000000000000000000049490000000000000000000000001200
5418650225000400551  001947620290000518940         000000010000000000040490000000000000000000040490000000000000000000000001200
5400051416220615551  001948120210200130003         000000010000000000129000000000000000000000000000000000000000000000000000000
5400045521247653551  001949120210200126259         000000010000000000164700000000000000000000000000000000000000000000000000000
5400013148826604551  001950120210200128102         000000010000000000554700000000000000000000000000000000000000000000000000000
5400046858512691551  001951120210200124834         000000010000000000117000000000000000000000000000000000000000000000000000000
5400010037432699551  001952120210200115846         000000010000000000066000000000000000000000000000000000000000000000000000000
5400071150552620551  001953120210200129706         000000010000000000117000000000000000000000000000000000000000000000000000000
5400003013702656551  001954120210200129735         000000010000000000168000000000000000000000000000000000000000000000000000000
5400045832315634551  001955120210200126329         000000010000000000089700000000000000000000000000000000000000000000000000000
5400005184748601551  001956120210200115712         000000010000000000069000000000000000000000000000000000000000000000000000000
5400005184748601551  001956120210200230331         000000010000000000327000000000000000000000000000000000000000000000000000000
5400005184748601551  001956120210200330511         000000010000000000348000000000000000000000000000000000000000000000000000000
5400003449143646551  001957120210200127441         000000010000000000299700000000000000000000000000000000000000000000000000000
5400007666923619551  001958120210200128494         000000010000000000042000000000000000000000000000000000000000000000000000000
5400090082079668551  001959120210200126609         000000010000000000318900000000000000000000000000000000000000000000000000000
5400049356470600551  001960120210200118618         000000010000000000087000000000000000000000000000000000000000000000000000000
5400001325764655551  001961120210200128820         000000010000000000143700000000000000000000000000000000000000000000000000000
5400042754291687551  001962120210200127461         000000010000000000378000000000000000000000000000000000000000000000000000000
5400004598276690551  001963120210200127309         000000010000000000179700000000000000000000000000000000000000000000000000000
5400003593417642551  001964120210200129831         000000010000000000177000000000000000000000000000000000000000000000000000000
5400003013702656551  001965120210200129736         000000010000000000168000000000000000000000000000000000000000000000000000000
5400046611959653551  001966120210200125087         000000010000000000381000000000081260000000000000000000000000000000000000000
5400046611959653551  001966120210200229923         000000010000000000207000000000010350000000000000000000000000000000000000000
5400046611959653551  001966120210200327553         000000010000000000434700000000000000000000000000000000000000000000000000000
5400046611959653551  001966120210200426484         000000010000000000374700000000000000000000000000000000000000000000000000000
5400046611959653551  001966120210200526606         000000010000000000479700000000014250000000000000000000000000000000000000000
5400043464084604551  001967120210200129634         000000010000000000078000000000000000000000000000000000000000000000000000000
5400052540855687551  001968120210200124780         000000010000000000075000000000000000000000000000000000000000000000000000000
5400054018838620551  001969120210200125630         000000010000000000036000000000000000000000000000000000000000000000000000000
5400083749470634551  001970120210200128199         000000010000000000209700000000000000000000000000000000000000000000000000000
5400083749470634551  001970120210200228510         000000010000000000087000000000000000000000000000000000000000000000000000000
5400083749470634551  001971120210200126873         000000010000000000119700000000000000000000000000000000000000000000000000000
5400083749470634551  001971120210200229839         000000010000000000104700000000000000000000000000000000000000000000000000000
5400046612831634551  001972120210200126283         000000010000000000299700000000000000000000000000000000000000000000000000000
5400034888977615551  001973120210200126747         000000010000000000479700000000000000000000000000000000000000000000000000000
5400005197580640551  001974120210200122889         000000010000000000299700000000000000000000000000000000000000000000000000000
5400007341553600551  001975120210200128704         000000010000000000179700000000000000000000000000000000000000000000000000000
5403535177000180551  001976620290000121808         000000010000000000083330000000000000000000000000000000000000000000000000000
5400045835926634551  00197712021020012997          000000010000000000169800000000000000000000000000000000000000000000000000000
5412093445000223551  001978620290000126540         000000010000000000244980000000000000000000244980000000000000000000000001200
5400011901689603551  001979120210200129211         000000010000000000089700000000000000000000000000000000000000000000000000000
5400011901689603551  001980120210200130104         000000010000000000129000000000000000000000000000000000000000000000000000000
5400003423795697551  001981120210200128341         000000010000000000042000000000000000000000000000000000000000000000000000000
5400030741238691551  001982120210200130778         000000010000000000207000000000000000000000000000000000000000000000000000000
5400030741238691551  001982120210200230784         000000010000000000147000000000000000000000000000000000000000000000000000000
5400089132009615551  001983120210200127602         000000010000000000137700000000000000000000000000000000000000000000000000000
5400030508487668551  001985120210200128010         000000010000000000299700000000000000000000000000000000000000000000000000000
5400004522266600551  001986120210200126579         000000010000000000119700000000000000000000000000000000000000000000000000000
5400008453142629551  001987120210200126462         000000010000000000235000000000000000000000000000000000000000000000000000000
5400004522266600551  001988120210200127425         000000010000000000344700000000000000000000000000000000000000000000000000000
5400040722597649551  001989120210200118572         000000010000000000164700000000000000000000000000000000000000000000000000000
5400007006999618551  001990120210200118619         000000010000000000087000000000000000000000000000000000000000000000000000000
5400001249528607551  001991120210200118629         000000010000000000089700000000000000000000000000000000000000000000000000000
5400042312701634551  001992120210200130760         000000010000000000089700000000000000000000000000000000000000000000000000000
5466914326000132551  002731210210200130776         000000010000000000159000000000015900000000000000000000000000000000000000000
5466914326000132551  002731210210200230777         000000010000000000089000000000008900000000000000000000000000000000000000000
5466914326000132551  002731210210200330778         000000010000000000089000000000008900000000000000000000000000000000000000000
5466914326000132551  002731210210200430779         000000010000000000064000000000006400000000000000000000000000000000000000000
5466914326000132551  002731210210200530780         000000030000000000147000000000014700000000000000000000000000000000000000000
5466914326000132551  002731210210200630781         000000010000000000069000000000006900000000000000000000000000000000000000000
5466914326000132551  002731210210200730782         000000010000000000059000000000005900000000000000000000000000000000000000000
5466914326000132551  002731210210200830783         000000010000000000069000000000006900000000000000000000000000000000000000000
5466914326000132551  002731210210200930784         000000010000000000064000000000006400000000000000000000000000000000000000000
5466914326000132551  002731210210201030785         000000010000000000140000000000014000000000000000000000000000000000000000000
5466914326000132551  002731210210201130786         000000010000000000110000000000011000000000000000000000000000000000000000000
5466914326000132551  002731210210201230787         000000010000000000159000000000015900000000000000000000000000000000000000000
5466914326000132551  002731210210201330788         000000010000000000139000000000013900000000000000000000000000000000000000000
5466914326000132551  002731210210201430789         000000010000000000119000000000011900000000000000000000000000000000000000000
5466914326000132551  002731210210201530790         000000010000000000119000000000011900000000000000000000000000000000000000000
5466914326000132551  002731210210201630791         000000010000000000149000000000014900000000000000000000000000000000000000000
5471236624000665551  003974110210200130682         000000010000000000329900000000016520000000000000000000000000000000000000000
5471236624000665551  003974110210200230683         000000010000000000319900000000016010000000000000000000000000000000000000000
5471236624000665551  003974110210200330684         000000010000000000319900000000016010000000000000000000000000000000000000000
5471236624000665551  003974110210200430686         000000010000000000289900000000014510000000000000000000000000000000000000000
5471236624000665551  003974110210200530687         000000010000000000229900000000011510000000000000000000000000000000000000000
5471236624000665551  003974110210200630688         000000010000000000329900000000016520000000000000000000000000000000000000000
5471236624000665551  003974110210200730689         000000010000000000239900000000012010000000000000000000000000000000000000000
5471236624000665551  003974110210200830690         000000010000000000289900000000014510000000000000000000000000000000000000000
5471236624000665551  003974110210200930691         000000010000000000359900000000018020000000000000000000000000000000000000000
5471236624000665551  003974110210201030692         000000010000000000299900000000015010000000000000000000000000000000000000000
5471236624000665551  003974110210201130693         000000010000000000489900000000024530000000000000000000000000000000000000000
5471236624000665551  003974110210201230694         000000010000000000329900000000016520000000000000000000000000000000000000000
5471236624000665551  003974110210201330695         000000010000000000499900000000025020000000000000000000000000000000000000000
5400675534000207551  006459110210200130618         000000020000000000236000000000000000000000000000000000000000000000000000000
5400675534000207551  006459110210200230619         000000020000000000228000000000000000000000000000000000000000000000000000000
5400675534000207551  006459110210200330620         000000010000000000112000000000000000000000000000000000000000000000000000000
5400675534000207551  006459110210200427949         000000010000000000102000000000000000000000000000000000000000000000000000000
5400675534000207551  006459110210200527950         000000010000000000112000000000000000000000000000000000000000000000000000000
5400675534000207551  006459110210200630621         000000010000000000112000000000000000000000000000000000000000000000000000000
5400675534000207551  006459110210200730622         000000020000000000196000000000000000000000000000000000000000000000000000000
5400675534000207551  006459110210200830623         000000010000000000114000000000000000000000000000000000000000000000000000000
5400675534000207551  006459110210200930624         000000020000000000224000000000000000000000000000000000000000000000000000000
5400675534000207551  006459110210201030625         000000010000000000118000000000000000000000000000000000000000000000000000000
5400675534000207551  006459110210201130626         000000010000000000112000000000000000000000000000000000000000000000000000000
5400675534000207551  006459110210201230627         000000010000000000098000000000000000000000000000000000000000000000000000000
5400675534000207551  006459110210201330628         000000010000000000088000000000000000000000000000000000000000000000000000000
5400675534000207551  006459110210201430629         000000010000000000114000000000000000000000000000000000000000000000000000000
5400675534000207551  006459110210201530630         000000020000000000212000000000000000000000000000000000000000000000000000000
5400675534000207551  006459110210201630631         000000020000000000236000000000000000000000000000000000000000000000000000000
5400675534000207551  006459110210201730632         000000010000000000092000000000000000000000000000000000000000000000000000000
5400675534000207551  006459110210201830633         000000010000000000122000000000000000000000000000000000000000000000000000000
5400675534000207551  006459110210201930634         000000010000000000088000000000000000000000000000000000000000000000000000000
5400675534000207551  006459110210202030635         000000010000000000094000000000000000000000000000000000000000000000000000000
5400675534000207551  006459110210202130636         000000010000000000092000000000000000000000000000000000000000000000000000000
5400675534000207551  006459110210202230637         000000010000000000118000000000000000000000000000000000000000000000000000000
5400675534000207551  006459110210202330638         000000020000000000212000000000000000000000000000000000000000000000000000000
5400675534000207551  006459110210202430639         000000010000000000122000000000000000000000000000000000000000000000000000000
5400675534000207551  006459110210202530640         000000020000000000188000000000000000000000000000000000000000000000000000000
5400675534000207551  006459110210202630641         000000010000000000122000000000000000000000000000000000000000000000000000000
5400675534000207551  006459110210202730642         000000010000000000168000000000000000000000000000000000000000000000000000000
5400675534000207551  006459110210202830643         000000010000000000212000000000000000000000000000000000000000000000000000000
5400675534000207551  006459110210202930644         000000010000000000092000000000000000000000000000000000000000000000000000000
5400675534000207551  006459110210203030645         000000010000000000114000000000000000000000000000000000000000000000000000000
5400675534000207551  006459110210203130646         000000010000000000182000000000000000000000000000000000000000000000000000000
5400675534000207551  006459110210203230647         000000010000000000168000000000000000000000000000000000000000000000000000000
5400675534000207551  006459110210203330648         000000010000000000162000000000000000000000000000000000000000000000000000000
5400675534000207551  006459110210203427974         000000010000000000176000000000000000000000000000000000000000000000000000000
5400675534000207551  006459110210203530649         000000010000000000158000000000000000000000000000000000000000000000000000000
5400675534000207551  006459110210203630650         000000010000000000172000000000000000000000000000000000000000000000000000000
5400675534000207551  006459110210203730651         000000010000000000142000000000000000000000000000000000000000000000000000000
5400675534000207551  006459110210203830652         000000010000000000162000000000000000000000000000000000000000000000000000000
5400675534000207551  006459110210203930653         000000010000000000154000000000000000000000000000000000000000000000000000000
5400675534000207551  006459110210204030654         000000010000000000188000000000000000000000000000000000000000000000000000000
5400675534000207551  006459110210204130655         000000010000000000148000000000000000000000000000000000000000000000000000000
5413800201000115551  006964110210200130656         000000010000000000329900000000007940000000000000000000000000000000000000000
5413800201000115551  006964110210200230657         000000010000000000329900000000007940000000000000000000000000000000000000000
5413800201000115551  006964110210200330658         000000010000000000359900000000008650000000000000000000000000000000000000000
5413800201000115551  006964110210200430659         000000010000000000289900000000006970000000000000000000000000000000000000000
5424330475000104551  007608210210200130878         000000020000000000233820000000000000000000000000000000000000000000000000000
5424330475000104551  007608210210200230879         000000030000000000269730000000000000000000000000000000000000000000000000000
5424330475000104551  007608210210200330880         000000020000000000467820000000000000000000000000000000000000000000000000000
5424330475000104551  007608210210200430881         000000020000000000179820000000000000000000000000000000000000000000000000000
5424330475000104551  007608210210200530882         000000020000000000251820000000000000000000000000000000000000000000000000000
5424330475000104551  007608210210200630883         000000020000000000341820000000000000000000000000000000000000000000000000000
5407470309000194551  008505210210200130850         000000010000000000199900000000019990000000000000000000000000000000000000000
5407470309000194551  008505210210200230851         000000020000000000319800000000031980000000000000000000000000000000000000000
5407470309000194551  008505210210200330852         000000010000000000149900000000014990000000000000000000000000000000000000000
5407470309000194551  008505210210200430853         000000020000000000399800000000039980000000000000000000000000000000000000000
5407470309000194551  008505210210200530854         000000010000000000199900000000019990000000000000000000000000000000000000000
5407470309000194551  008505210210200630855         000000020000000000319800000000031980000000000000000000000000000000000000000
5407470309000194551  008505210210200730856         000000010000000000149900000000014990000000000000000000000000000000000000000
5407470309000194551  008505210210200828208         000000010000000000159900000000015990000000000000000000000000000000000000000
5407470309000194551  008505210210200928202         000000010000000000149900000000014990000000000000000000000000000000000000000
5401285847000122551  010110210210200130939         000000020000000000299800000000029980000000000000000000000000000000000000000
5401285847000122551  010110210210200220409         000000010000000000063900000000006390000000000000000000000000000000000000000
5401285847000122551  010110210210200330940         000000010000000000063900000000006390000000000000000000000000000000000000000
5401285847000122551  010110210210200430941         000000030000000000419700000000041970000000000000000000000000000000000000000
5401285847000122551  010110210210200512524         000000020000000000239800000000023980000000000000000000000000000000000000000
5401285847000122551  010110210210200630942         000000050000000000549500000000054950000000000000000000000000000000000000000
5471634646000179551  010595210210200130874         000000010000000000108000000000000000000000000000000000000000000000000000000
5471634646000179551  010595210210200229993         000000020000000000126000000000000000000000000000000000000000000000000000000
5471634646000179551  010595210210200329982         000000030000000000297000000000000000000000000000000000000000000000000000000
5471634646000179551  010595210210200429998         000000010000000000117000000000000000000000000000000000000000000000000000000
5466794033000169551  021460210210200130753         000000010000000000047800000000003350000000000000000000000000000000000000000
5466794033000169551  021460210210200230754         000000020000000000087000000000006080000000000000000000000000000000000000000
5466794033000169551  021460210210200330755         000000010000000000046500000000003260000000000000000000000000000000000000000
5466794033000169551  021460210210200430756         000000010000000000039700000000002780000000000000000000000000000000000000000
5466794033000169551  021460210210200529867         000000010000000000044900000000003140000000000000000000000000000000000000000
5466794033000169551  021460210210200630758         000000010000000000043700000000003060000000000000000000000000000000000000000
5466794033000169551  021460210210200730760         000000020000000000077800000000005450000000000000000000000000000000000000000
5466794033000169551  021460210210200830761         000000020000000000085400000000005970000000000000000000000000000000000000000
5466794033000169551  021460210210200930762         000000010000000000039400000000002760000000000000000000000000000000000000000
5466794033000169551  021460210210201029872         000000010000000000024500000000001720000000000000000000000000000000000000000
5466794033000169551  021460210210201130764         000000010000000000028500000000002000000000000000000000000000000000000000000
5466794033000169551  021460210210201230770         000000010000000000022500000000001580000000000000000000000000000000000000000
5404049767000166551  023203210210200130738         000000020000000000159800000000015980000000000000000000000000000000000000000
5404049767000166551  023203210210200230739         000000010000000000169900000000016990000000000000000000000000000000000000000
5404049767000166551  023203210210200330740         000000010000000000159900000000015990000000000000000000000000000000000000000
5404049767000166551  023203210210200430741         000000010000000000139900000000013990000000000000000000000000000000000000000
5404049767000166551  023203210210200530742         000000010000000000159900000000015990000000000000000000000000000000000000000
5404049767000166551  023203210210200630743         000000010000000000149900000000014990000000000000000000000000000000000000000
5404049767000166551  023203210210200730744         000000010000000000169900000000016990000000000000000000000000000000000000000
5404049767000166551  023203210210200830745         000000050000000000349500000000034950000000000000000000000000000000000000000
5404049767000166551  023203210210200930746         000000020000000000319800000000031980000000000000000000000000000000000000000
5404049767000166551  023203210210201030747         000000010000000000149900000000014990000000000000000000000000000000000000000
5404049767000166551  023203210210201130748         000000020000000000179800000000017980000000000000000000000000000000000000000
5404049767000166551  023203210210201230749         000000010000000000179900000000017990000000000000000000000000000000000000000
5404049767000166551  023203210210201330750         000000020000000000199800000000019980000000000000000000000000000000000000000
5404049767000166551  023203210210201430751         000000010000000000189900000000018990000000000000000000000000000000000000000
5462534813000119551  029714210210200128376         000000090000000000597690000000000000000000000000000000000000000000000000000
5462534813000119551  029714210210200230803         000000020000000000151820000000000000000000000000000000000000000000000000000
5462534813000119551  029714210210200330804         000000030000000000184980000000000000000000000000000000000000000000000000000
5462534813000119551  029714210210200430805         000000010000000000137660000000000000000000000000000000000000000000000000000
5462534813000119551  029714210210200528379         000000030000000000170730000000000000000000000000000000000000000000000000000
5462534813000119551  029714210210200628382         000000030000000000094050000000000000000000000000000000000000000000000000000
5462534813000119551  029714210210200728389         000000060000000000540960000000000000000000000000000000000000000000000000000
5462534813000119551  029714210210200830806         000000010000000000056910000000000000000000000000000000000000000000000000000
5462534813000119551  029714210210200930817         000000010000000000053100000000000000000000000000000000000000000000000000000
5462534813000119551  029714210210201030807         000000010000000000085410000000000000000000000000000000000000000000000000000
5462534813000119551  029714210210201130808         000000050000000000146750000000000000000000000000000000000000000000000000000
5462534813000119551  029714210210201230809         000000020000000000058700000000000000000000000000000000000000000000000000000
5462534813000119551  029714210210201330810         000000060000000000187500000000000000000000000000000000000000000000000000000
5462534813000119551  029714210210201430811         000000010000000000033160000000000000000000000000000000000000000000000000000
5462534813000119551  029714210210201530812         000000020000000000167020000000000000000000000000000000000000000000000000000
5462534813000119551  029714210210201630813         000000010000000000071160000000000000000000000000000000000000000000000000000
5462534813000119551  029714210210201730814         000000010000000000064510000000000000000000000000000000000000000000000000000
5462534813000119551  029714210210201830815         000000060000000000501060000000000000000000000000000000000000000000000000000
5462534813000119551  029714210210201930816         000000060000000000569460000000000000000000000000000000000000000000000000000
5403195628000188551  033110155610200130696         000000010000000000096700000000000000000000000000000000000000000000000000000
5403195628000188551  033403155610200130971         000000010000000000059620000000000000000000000000000000000000000000000000000
5403195628000188551  033403155610200230972         000000010000000000058020000000000000000000000000000000000000000000000000000
5448950372000105551  036457210210200130720         000000020000000000328000000000000000000000000000000000000000000000032800000
5448950372000105551  036457210210200230721         000000010000000000239000000000000000000000000000000000000000000000023900000
5448950372000105551  036457210210200330722         000000030000000000417000000000000000000000000000000000000000000000041700000
5448950372000105551  036457210210200430723         000000020000000000288000000000000000000000000000000000000000000000028800000
5448950372000105551  036457210210200530724         000000010000000000289000000000000000000000000000000000000000000000028900000
5448950372000105551  036457210210200630725         000000010000000000209000000000000000000000000000000000000000000000020900000
5448950372000105551  036457210210200730726         000000010000000000209000000000000000000000000000000000000000000000020900000
5448950372000105551  036457210210200830727         000000010000000000299000000000000000000000000000000000000000000000029900000
5448950372000105551  036457210210200930728         000000030000000000447000000000000000000000000000000000000000000000044700000
5448950372000105551  036457210210201030729         000000030000000000597000000000000000000000000000000000000000000000059700000
5448950372000105551  036457210210201130730         000000010000000000279000000000000000000000000000000000000000000000027900000
5448950372000105551  036457210210201230731         000000010000000000299000000000000000000000000000000000000000000000029900000
5448950372000105551  036457210210201330732         000000010000000000289000000000000000000000000000000000000000000000028900000
5448950372000105551  036457210210201430733         000000030000000000267000000000000000000000000000000000000000000000026700000
5448950372000105551  036457210210201530734         000000010000000000099000000000000000000000000000000000000000000000009900000
5448950372000105551  036457210210201630735         000000040000000000212000000000000000000000000000000000000000000000021200000
5448950372000105551  036457210210201730736         000000020000000000378000000000000000000000000000000000000000000000037800000
5448950372000105551  036457210210201830737         000000020000000000458000000000000000000000000000000000000000000000045800000
5479452025000186551  0481021102   997              000000000000000000000000000000000000000000000000000000000000000000000000000
5479452025000186551  048471210210200130436         000000010000000000099000000000000000000000000000000000000000000000000000000
5479452025000186551  048471210210200230418         000000010000000000099000000000000000000000000000000000000000000000000000000
5479452025000186551  048471210210200330417         000000010000000000099000000000000000000000000000000000000000000000000000000
5479452025000186551  048471210210200430416         000000020000000000198000000000000000000000000000000000000000000000000000000
5479452025000186551  048471210210200530415         000000010000000000099000000000000000000000000000000000000000000000000000000
5479452025000186551  048471210210200630403         000000010000000000159000000000000000000000000000000000000000000000000000000
5479452025000186551  048471210210200730402         000000010000000000159000000000000000000000000000000000000000000000000000000
5479452025000186551  048471210210200830401         000000010000000000159000000000000000000000000000000000000000000000000000000
5479452025000186551  048471210210200930400         000000010000000000159000000000000000000000000000000000000000000000000000000
5479452025000186551  048471210210201030399         000000010000000000159000000000000000000000000000000000000000000000000000000
5479452025000186551  048471210210201130391         000000010000000000139000000000000000000000000000000000000000000000000000000
5479452025000186551  048471210210201230390         000000010000000000139000000000000000000000000000000000000000000000000000000
5479452025000186551  048471210210201330389         000000010000000000139000000000000000000000000000000000000000000000000000000
5479452025000186551  048471210210201430388         000000010000000000139000000000000000000000000000000000000000000000000000000
5479452025000186551  048471210210201530387         000000010000000000139000000000000000000000000000000000000000000000000000000
5479452025000186551  048471210210201630351         000000010000000000159000000000000000000000000000000000000000000000000000000
5479452025000186551  048471210210201730350         000000020000000000218000000000000000000000000000000000000000000000000000000
5479452025000186551  048471210210201830349         000000020000000000218000000000000000000000000000000000000000000000000000000
5479452025000186551  048471210210201930348         000000030000000000327000000000000000000000000000000000000000000000000000000
5479452025000186551  048471210210202030347         000000050000000000545000000000000000000000000000000000000000000000000000000
5479452025000186551  048471210210202130346         000000020000000000218000000000000000000000000000000000000000000000000000000
5479452025000186551  048471210210202230345         000000010000000000109000000000000000000000000000000000000000000000000000000
5479452025000186551  048471210210202330315         000000010000000000149000000000000000000000000000000000000000000000000000000
5479452025000186551  048471210210202430312         000000010000000000099000000000000000000000000000000000000000000000000000000
5479452025000186551  048471210210202530311         000000010000000000099000000000000000000000000000000000000000000000000000000
5479452025000186551  048471210210202630310         000000010000000000099000000000000000000000000000000000000000000000000000000
5479452025000186551  048471210210202730309         000000010000000000099000000000000000000000000000000000000000000000000000000
5479452025000186551  048471210210202830308         000000010000000000079000000000000000000000000000000000000000000000000000000
5479452025000186551  048471210210202930306         000000010000000000069000000000000000000000000000000000000000000000000000000
5479452025000186551  048471210210203030305         000000010000000000069000000000000000000000000000000000000000000000000000000
5479452025000186551  048471210210203130943         000000010000000000149000000000000000000000000000000000000000000000000000000
5479452025000186551  048471210210203230944         000000010000000000149000000000000000000000000000000000000000000000000000000
5479452025000186551  048471210210203330946         000000010000000000109000000000000000000000000000000000000000000000000000000
5479452025000186551  048471210210203430945         000000010000000000109000000000000000000000000000000000000000000000000000000
5401480798000340551  051234210210200130947         000000010000000000072450000000000000000000000000000000000000000000005250000
5401480798000340551  051234210210200230948         000000020000000000144900000000000000000000000000000000000000000000021000000
5401480798000340551  051234210210200330949         000000020000000000158400000000000000000000000000000000000000000000025090000
5401480798000340551  051234210210200430950         000000050000000000071250000000000000000000000000000000000000000000005080000
5401480798000340551  051234210210200530951         000000020000000000061800000000000000000000000000000000000000000000003820000
5401480798000340551  051234210210200630953         000000010000000000072450000000000000000000000000000000000000000000005250000
5401480798000340551  051234210210200730954         000000010000000000014250000000000000000000000000000000000000000000000200000
5401480798000340551  051234210210200830955         000000010000000000072450000000000000000000000000000000000000000000005250000
5401480798000340551  051234210210200930973         000000020000000000169200000000000000000000000000000000000000000000028630000
5401480798000340551  051234210210201030974         000000020000000000130800000000000000000000000000000000000000000000017110000
5401480798000340551  051234210210201130975         000000040000000000037800000000000000000000000000000000000000000000001430000
5401480798000340551  051234210210201230959         000000020000000000028500000000000000000000000000000000000000000000000810000
5401480798000340551  051234210210201330960         000000050000000000154500000000000000000000000000000000000000000000023870000
5401480798000340551  051234210210201430964         000000010000000000072450000000000000000000000000000000000000000000005250000
5401480798000340551  051234210210201530965         000000010000000000076000000000000000000000000000000000000000000000005780000
5401480798000340551  051234210210201630967         000000020000000000144900000000000000000000000000000000000000000000021000000
5401480798000340551  051234210210201730970         000000010000000000154000000000000000000000000000000000000000000000023720000
5401480798000340551  051234210210201830968         000000040000000000123600000000000000000000000000000000000000000000015280000
5401480798000340551  051234210210201930976         000000010000000000011700000000000000000000000000000000000000000000000140000
5401480798000340551  051234210210202030962         000000040000000000123600000000000000000000000000000000000000000000000000000
5401480798000340551  051234210210202130963         000000040000000000123600000000000000000000000000000000000000000000000000000
5401480798000340551  051234210210202230965         000000020000000000152000000000000000000000000000000000000000000000002430000
5451719961000191551  059691210210200130697         000000020000000000079800000000005590000000000000000000000000000000000000000
5451719961000191551  059691210210200230698         000000020000000000059800000000004190000000000000000000000000000000000000000
5451719961000191551  059691210210200330699         000000120000000000310800000000021760000000000000000000000000000000000000000
5451719961000191551  059691210210200430700         000000040000000000103600000000007250000000000000000000000000000000000000000
5451719961000191551  059691210210200530701         000000090000000000719100000000050330000000000000000000000000000000000000000
5451719961000191551  059691210210200630702         000000060000000000269400000000018860000000000000000000000000000000000000000
5451719961000191551  059691210210200730703         000000090000000000215100000000015060000000000000000000000000000000000000000
5451719961000191551  059691210210200830704         000000050000000000099500000000006960000000000000000000000000000000000000000
5451719961000191551  059691210210200930705         000000030000000000089700000000006280000000000000000000000000000000000000000
5451719961000191551  059691210210201030706         000000030000000000065700000000004600000000000000000000000000000000000000000
5451719961000191551  059691210210201130707         000000020000000000239800000000016790000000000000000000000000000000000000000
5451719961000191551  059691210210201230708         000000020000000000159800000000011190000000000000000000000000000000000000000
5451719961000191551  059691210210201330709         000000030000000000299700000000020980000000000000000000000000000000000000000
5451719961000191551  059691210210201430710         000000030000000000329700000000023070000000000000000000000000000000000000000
5451719961000191551  059691210210201530711         000000070000000000489300000000034240000000000000000000000000000000000000000
5451719961000191551  059691210210201630712         000000020000000000119800000000008390000000000000000000000000000000000000000
5451719961000191551  059691210210201730713         000000070000000000349300000000024440000000000000000000000000000000000000000
5451719961000191551  059691210210201830714         000000020000000000119800000000008390000000000000000000000000000000000000000
5451719961000191551  059691210210201930715         000000020000000000079800000000005590000000000000000000000000000000000000000
5451719961000191551  059691210210202030716         000000030000000000083700000000005860000000000000000000000000000000000000000
5451719961000191551  059691210210202130717         000000020000000000129800000000009090000000000000000000000000000000000000000
5451719961000191551  059691210210202230718         000000040000000000199600000000013970000000000000000000000000000000000000000
5451719961000191551  059691210210202330719         000000030000000000179700000000012580000000000000000000000000000000000000000
5451719961000191551  059691210210202420340         000000120000000000394800000000027630000000000000000000000000000000000000000
5451719961000191551  059691210210202515832         000000070000000000188300000000013180000000000000000000000000000000000000000
5451719961000191551  059691210210202616417         000000090000000000305100000000021360000000000000000000000000000000000000000
5403661456000190551  060945155610200111660         000000010000000000125000000000000000000000000000000000000000000000000000000
5418650225000400551  108275210210200129795         000000010000000000073490000000000000000000073490000000000000000000000001200
5418650225000400551  108275210210200229794         000000010000000000073490000000000000000000073490000000000000000000000001200
5418650225000400551  108275210210200329793         000000010000000000073490000000000000000000073490000000000000000000000001200
5418650225000400551  108275210210200429749         000000010000000000062990000000000000000000062990000000000000000000000001200
5418650225000400551  108275210210200529748         000000020000000000125980000000000000000000125980000000000000000000000001200
5418650225000400551  108275210210200629747         000000010000000000062990000000000000000000062990000000000000000000000001200
5418650225000400551  108275210210200729746         000000010000000000062990000000000000000000062990000000000000000000000001200
5418650225000400551  108275210210200829636         000000020000000000059980000000000000000000059980000000000000000000000001200
5418650225000400551  108275210210200929635         000000010000000000029990000000000000000000029990000000000000000000000001200
5418650225000400551  108275210210201029634         000000030000000000089970000000000000000000089970000000000000000000000001200
5418650225000400551  108275210210201129633         000000030000000000089970000000000000000000089970000000000000000000000001200
5418650225000400551  108275210210201229632         000000020000000000059980000000000000000000059980000000000000000000000001200
5418650225000400551  108275210210201329498         000000020000000000119980000000000000000000119980000000000000000000000001200
5418650225000400551  108275210210201429497         000000030000000000179970000000000000000000179970000000000000000000000001200
5418650225000400551  108275210210201529496         000000030000000000179970000000000000000000179970000000000000000000000001200
5418650225000400551  108275210210201629495         000000040000000000239960000000000000000000239960000000000000000000000001200
5418650225000400551  108275210210201729494         000000040000000000239960000000000000000000239960000000000000000000000001200
5418650225000400551  108275210210201829493         000000020000000000119980000000000000000000119980000000000000000000000001200
5418650225000400551  108275210210201918628         000000020000000000062980000000000000000000062980000000000000000000000001200
5418650225000400551  108275210210202018629         000000040000000000125960000000000000000000125960000000000000000000000001200
5418650225000400551  108275210210202118630         000000040000000000125960000000000000000000125960000000000000000000000001200
5418650225000400551  108275210210202218631         000000030000000000094470000000000000000000094470000000000000000000000001200
5418650225000400551  108275240720202319228         000000010000000000149990000000000000000000149990000000000000000000000001200
5418650225000400551  111435210210200129905         000000010000000000099990000000006840000000000000000000000000000000000000000
5418650225000400551  111435210210200229904         000000010000000000099990000000006840000000000000000000000000000000000000000
5418650225000400551  111435210210200329903         000000020000000000199980000000013680000000000000000000000000000000000000000
5418650225000400551  111435210210200429902         000000020000000000199980000000013680000000000000000000000000000000000000000
5418650225000400551  111435210210200529901         000000020000000000199980000000013680000000000000000000000000000000000000000
5418650225000400551  111435210210200629900         000000010000000000099990000000006840000000000000000000000000000000000000000
5418650225000400551  111435210210200729725         000000010000000000052490000000003590000000000000000000000000000000000000000
5418650225000400551  111435210210200829724         000000010000000000052490000000003590000000000000000000000000000000000000000
5418650225000400551  111435210210200929723         000000010000000000052490000000003590000000000000000000000000000000000000000
5418650225000400551  111435210210201029722         000000010000000000052490000000003590000000000000000000000000000000000000000
5418650225000400551  111435210210201129684         000000010000000000052490000000003590000000000000000000000000000000000000000
5418650225000400551  111435210210201229683         000000020000000000104980000000007180000000000000000000000000000000000000000
5418650225000400551  111435210210201329682         000000020000000000104980000000007180000000000000000000000000000000000000000
5418650225000400551  111435210210201429681         000000010000000000052490000000003590000000000000000000000000000000000000000
5418650225000400551  111435210210201529649         000000010000000000057740000000003950000000000000000000000000000000000000000
5418650225000400551  111435210210201629648         000000010000000000057740000000003950000000000000000000000000000000000000000
5418650225000400551  111435210210201729647         000000010000000000057740000000003950000000000000000000000000000000000000000
5418650225000400551  111435210210201829646         000000010000000000057740000000003950000000000000000000000000000000000000000
5418650225000400551  111435210210201929635         000000010000000000034990000000002390000000000000000000000000000000000000000
5418650225000400551  111435210210202029563         000000010000000000089990000000006160000000000000000000000000000000000000000
5418650225000400551  111435210210202129562         000000020000000000179980000000012320000000000000000000000000000000000000000
5418650225000400551  111435210210202229561         000000030000000000269970000000018480000000000000000000000000000000000000000
5418650225000400551  111435210210202329560         000000030000000000269970000000018470000000000000000000000000000000000000000
5418650225000400551  111435210210202429559         000000020000000000179980000000012320000000000000000000000000000000000000000
5418650225000400551  111435210210202529558         000000010000000000089990000000006160000000000000000000000000000000000000000
5418650225000400551  111435210210202629527         000000010000000000089990000000006160000000000000000000000000000000000000000
5418650225000400551  111435210210202729526         000000010000000000089990000000006160000000000000000000000000000000000000000
5418650225000400551  111435210210202829525         000000020000000000179980000000012320000000000000000000000000000000000000000
5418650225000400551  111435210210202929524         000000020000000000179980000000012320000000000000000000000000000000000000000
5418650225000400551  111435210210203029523         000000020000000000179980000000012320000000000000000000000000000000000000000
5418650225000400551  111435210210203129522         000000010000000000089990000000006160000000000000000000000000000000000000000
5443470566002567551  179822210210200128099         000000010000000000266230000000000000000000000000000000000000000000000000000
5443470566002567551  179822210210200228094         000000010000000000248450000000000000000000000000000000000000000000000000000
5443470566002567551  179822210210200328093         000000010000000000248450000000000000000000000000000000000000000000000000000
5443470566002567551  179822210210200428070         000000010000000000221780000000000000000000000000000000000000000000000000000
5443470566002567551  179822210210200528069         000000010000000000221780000000000000000000000000000000000000000000000000000
5443470566002567551  179822210210200627944         000000010000000000124000000000000000000000000000000000000000000000000000000
5443470566002567551  179822210210200727886         000000010000000000124000000000000000000000000000000000000000000000000000000
5443470566002567551  179822210210200827885         000000010000000000124000000000000000000000000000000000000000000000000000000
5443470566002567551  179822210210200927869         000000010000000000124000000000000000000000000000000000000000000000000000000
5443470566002567551  179822210210201030292         000000010000000000124000000000000000000000000000000000000000000000000000000
5443470566002567551  179822210210201130293         000000010000000000124000000000000000000000000000000000000000000000000000000
5443470566002567551  179822210210201229225         000000010000000000124000000000000000000000000000000000000000000000000000000
5443470566002567551  179822210210201329226         000000010000000000124000000000000000000000000000000000000000000000000000000
5443470566002567551  179822210210201430294         000000010000000000124000000000000000000000000000000000000000000000000000000
5443470566002567551  179822210210201530295         000000010000000000124000000000000000000000000000000000000000000000000000000
5443470566002567551  179822210210201629405         000000010000000000177340000000000000000000000000000000000000000000000000000
5443470566002567551  179822210210201729421         000000010000000000177340000000000000000000000000000000000000000000000000000
5443470566002567551  179822210210201829429         000000010000000000177340000000000000000000000000000000000000000000000000000
5443470566002567551  179822210210201930271         000000010000000000052890000000000000000000000000000000000000000000000000000
5443470566002567551  179822210210202030272         000000010000000000070670000000000000000000000000000000000000000000000000000
5443470566002567551  179822210210202130285         000000010000000000106220000000000000000000000000000000000000000000000000000
5443470566002567551  179822210210202230286         000000020000000000212440000000000000000000000000000000000000000000000000000
5443470566002567551  179822210210202330287         000000010000000000106220000000000000000000000000000000000000000000000000000
5443470566002567551  179822210210202430288         000000010000000000106220000000000000000000000000000000000000000000000000000
5443470566002567551  179822210210202530359         000000010000000000106220000000000000000000000000000000000000000000000000000
5443470566002567551  179822210210202630289         000000010000000000061780000000000000000000000000000000000000000000000000000
5443470566002567551  179822210210202730290         000000010000000000061780000000000000000000000000000000000000000000000000000
5443470566002567551  179822210210202830291         000000010000000000061780000000000000000000000000000000000000000000000000000
5443470566002567551  181842210210200128139         000000010000000000052890000000000000000000000000000000000000000000000000000
5443470566002567551  181842210210200228138         000000010000000000052890000000000000000000000000000000000000000000000000000
5443470566002567551  181842210210200328128         000000010000000000177340000000000000000000000000000000000000000000000000000
5443470566002567551  181842210210200428106         000000010000000000248450000000000000000000000000000000000000000000000000000
5443470566002567551  181842210210200528105         000000010000000000266230000000000000000000000000000000000000000000000000000
5443470566002567551  181842210210200628091         000000010000000000221780000000000000000000000000000000000000000000000000000
5443470566002567551  181842210210200728066         000000010000000000221780000000000000000000000000000000000000000000000000000
5443470566002567551  181842210210200828042         000000010000000000124000000000000000000000000000000000000000000000000000000
5443470566002567551  181842210210200928041         000000010000000000124000000000000000000000000000000000000000000000000000000
5443470566002567551  181842210210201027871         000000010000000000132890000000000000000000000000000000000000000000000000000
5443470566002567551  181842210210201127870         000000010000000000132890000000000000000000000000000000000000000000000000000
5443470566002567551  181842210210201229222         000000010000000000124000000000000000000000000000000000000000000000000000000
5443470566002567551  181842210210201329223         000000010000000000124000000000000000000000000000000000000000000000000000000
5443470566002567551  181842210210201429224         000000010000000000124000000000000000000000000000000000000000000000000000000
5443470566002567551  181842210210201529419         000000010000000000124000000000000000000000000000000000000000000000000000000
5443470566002567551  181842210210201629420         000000010000000000204000000000000000000000000000000000000000000000000000000
5443470566002567551  181842210210201729435         000000010000000000124000000000000000000000000000000000000000000000000000000
5443470566002567551  181842210210201829436         000000010000000000124000000000000000000000000000000000000000000000000000000
5443470566002567551  181842210210201929440         000000010000000000132890000000000000000000000000000000000000000000000000000
5443470566002567551  181842210210202029451         000000010000000000204000000000000000000000000000000000000000000000000000000
5443470566002567551  181842210210202129452         000000010000000000204000000000000000000000000000000000000000000000000000000
5443470566002567551  181842210210202230300         000000010000000000168450000000000000000000000000000000000000000000000000000
5443470566002567551  181842210210202330301         000000010000000000168450000000000000000000000000000000000000000000000000000
5443470566002567551  181842210210202430269         000000010000000000052890000000000000000000000000000000000000000000000000000
5443470566002567551  181842210210202530276         000000020000000000141340000000000000000000000000000000000000000000000000000
5443470566002567551  181842210210202630277         000000010000000000070670000000000000000000000000000000000000000000000000000
5443470566002567551  181842210210202730278         000000020000000000141340000000000000000000000000000000000000000000000000000
5443470566002567551  181842210210202830279         000000020000000000141340000000000000000000000000000000000000000000000000000
5443470566002567551  181842210210202930281         000000010000000000106220000000000000000000000000000000000000000000000000000
5443470566002567551  181842210210203030282         000000010000000000106220000000000000000000000000000000000000000000000000000
5443470566002567551  181842210210203130285         000000020000000000212440000000000000000000000000000000000000000000000000000
5443470566002567551  181842210210203230286         000000020000000000212440000000000000000000000000000000000000000000000000000
5443470566002567551  181842210210203330287         000000010000000000106220000000000000000000000000000000000000000000000000000
5412093445000223551  400511210210200129204         000000010000000000090450000000000000000000000000000000000000000000000000000
5412093445000223551  400511210210200229203         000000020000000000180900000000000000000000000000000000000000000000000000000
5412093445000223551  400511210210200329202         000000010000000000090450000000000000000000000000000000000000000000000000000
5412093445000223551  400511210210200429150         000000010000000000117720000000000000000000000000000000000000000000000000000
5412093445000223551  400511210210200529142         000000010000000000154080000000000000000000000000000000000000000000000000000
5412093445000223551  400511210210200629141         000000010000000000154080000000000000000000000000000000000000000000000000000
5412093445000223551  400511210210200729140         000000010000000000154080000000000000000000000000000000000000000000000000000
5412093445000223551  400511210210200829125         000000010000000000163170000000000000000000000000000000000000000000000000000
5412093445000223551  400511210210200929123         000000010000000000163170000000000000000000000000000000000000000000000000000
5412093445000223551  400511210210201029089         000000010000000000154080000000000000000000000000000000000000000000000000000
5412093445000223551  400511210210201129088         000000010000000000154080000000000000000000000000000000000000000000000000000
5412093445000223551  400511210210201229072         000000010000000000063180000000000000000000000000000000000000000000000000000
5412093445000223551  400511210210201329071         000000010000000000063180000000000000000000000000000000000000000000000000000
5412093445000223551  400511210210201429052         000000010000000000063180000000000000000000000000000000000000000000000000000
5412093445000223551  400511210210201529051         000000010000000000063180000000000000000000000000000000000000000000000000000
5412093445000223551  400511210210201629050         000000010000000000063180000000000000000000000000000000000000000000000000000
5412093445000223551  400511210210201726626         000000010000000000208620000000000000000000000000000000000000000000000000000
5412093445000223551  400511210210201826627         000000010000000000172260000000000000000000000000000000000000000000000000000
5412093445000223551  400511210210201926628         000000010000000000172260000000000000000000000000000000000000000000000000000
5412093445000223551  401703210210200129217         000000010000000000154080000000000000000000000000000000000000000000000000000
5412093445000223551  401703210210200229195         000000020000000000090000000000000000000000000000000000000000000000000000000
5412093445000223551  401703210210200329194         000000040000000000180000000000000000000000000000000000000000000000000000000
5412093445000223551  401703210210200429193         000000040000000000180000000000000000000000000000000000000000000000000000000
5412093445000223551  401703210210200529192         000000040000000000180000000000000000000000000000000000000000000000000000000
5412093445000223551  401703210210200629191         000000020000000000090000000000000000000000000000000000000000000000000000000
5412093445000223551  401703210210200729180         000000010000000000163170000000000000000000000000000000000000000000000000000
5412093445000223551  401703210210200829179         000000010000000000163170000000000000000000000000000000000000000000000000000
5412093445000223551  401703210210200929178         000000010000000000108630000000000000000000000000000000000000000000000000000
5412093445000223551  401703210210201029177         000000010000000000108630000000000000000000000000000000000000000000000000000
5412093445000223551  401703210210201129168         000000010000000000154080000000000000000000000000000000000000000000000000000
5412093445000223551  401703210210201229167         000000010000000000154080000000000000000000000000000000000000000000000000000
5412093445000223551  401703210210201329136         000000010000000000163170000000000000000000000000000000000000000000000000000
5412093445000223551  401703210210201429135         000000010000000000163170000000000000000000000000000000000000000000000000000
5412093445000223551  401703210210201529134         000000010000000000244980000000000000000000000000000000000000000000000000000
5412093445000223551  401703210210201629079         000000010000000000063180000000000000000000000000000000000000000000000000000
5412093445000223551  401703210210201729076         000000010000000000117720000000000000000000000000000000000000000000000000000
5412093445000223551  401703210210201829075         000000010000000000117720000000000000000000000000000000000000000000000000000
5412093445000223551  401703210210201929074         000000010000000000126810000000000000000000000000000000000000000000000000000
5412093445000223551  401703210210202029073         000000010000000000126810000000000000000000000000000000000000000000000000000
5412093445000223551  401703210210202129056         000000010000000000117720000000000000000000000000000000000000000000000000000
5412093445000223551  401703210210202229055         000000010000000000117720000000000000000000000000000000000000000000000000000
5412093445000223551  401703210210202329054         000000010000000000181350000000000000000000000000000000000000000000000000000
5412093445000223551  401703210210202429023         000000010000000000108630000000000000000000000000000000000000000000000000000
5412093445000223551  401703210210202529022         000000010000000000054090000000000000000000000000000000000000000000000000000
5412093445000223551  401703210210202629021         000000010000000000054090000000000000000000000000000000000000000000000000000
5412093445000223551  401703210210202729020         000000010000000000108630000000000000000000000000000000000000000000000000000
5412093445000223551  401703210210202826636         000000010000000000199530000000000000000000000000000000000000000000000000000
5412093445000223551  402316210210200126639         000000010000000000163170000000000000000000000000000000000000000000000000000
5412093445000223551  402316210210200226573         000000010000000000163170000000000000000000000000000000000000000000000000000
5412093445000223551  402316210210200326572         000000010000000000163170000000000000000000000000000000000000000000000000000
5412093445000223551  402316210210200426571         000000010000000000135900000000000000000000000000000000000000000000000000000
5412093445000223551  402316210210200526570         000000010000000000135900000000000000000000000000000000000000000000000000000
5412093445000223551  402316210210200626569         000000010000000000135900000000000000000000000000000000000000000000000000000
5412093445000223551  402316210210200726541         000000010000000000299520000000000000000000000000000000000000000000000000000
5412093445000223551  402316210210200826475         000000010000000000108630000000000000000000000000000000000000000000000000000
5412093445000223551  402316210210200926474         000000010000000000108630000000000000000000000000000000000000000000000000000
5412093445000223551  402316210210201026471         000000010000000000154080000000000000000000000000000000000000000000000000000
5412093445000223551  402316210210201129030         000000010000000000154080000000000000000000000000000000000000000000000000000
5412093445000223551  402316210210201229031         000000010000000000181350000000000000000000000000000000000000000000000000000
5412093445000223551  402316210210201329048         000000010000000000117720000000000000000000000000000000000000000000000000000
5412093445000223551  402316210210201429049         000000010000000000117720000000000000000000000000000000000000000000000000000
5412093445000223551  402316210210201529070         000000010000000000117720000000000000000000000000000000000000000000000000000
5412093445000223551  402316210210201629174         000000010000000000208620000000000000000000000000000000000000000000000000000
5412093445000223551  402316210210201729124         000000010000000000272250000000000000000000000000000000000000000000000000000
5412093445000223551  402316210210201829216         000000010000000000154080000000000000000000000000000000000000000000000000000
5412093445000223551  402796210210200129214         000000010000000000208620000000000000000000000000000000000000000000000000000
5412093445000223551  402796210210200229117         000000010000000000072270000000000000000000000000000000000000000000000000000
5412093445000223551  402796210210200329116         000000010000000000072270000000000000000000000000000000000000000000000000000
5412093445000223551  402796210210200429115         000000010000000000072270000000000000000000000000000000000000000000000000000
5412093445000223551  402796210210200529112         000000010000000000072270000000000000000000000000000000000000000000000000000
5412093445000223551  402796210210200629111         000000010000000000072270000000000000000000000000000000000000000000000000000
5412093445000223551  402796210210200729063         000000010000000000063180000000000000000000000000000000000000000000000000000
5412093445000223551  402796210210200829062         000000010000000000063180000000000000000000000000000000000000000000000000000
